{
  "contractName": "Bank",
  "abi": [
    {
      "inputs": [],
      "payable": false,
      "stateMutability": "nonpayable",
      "type": "constructor"
    },
    {
      "constant": true,
      "inputs": [],
      "name": "getBalance",
      "outputs": [
        {
          "internalType": "uint256",
          "name": "",
          "type": "uint256"
        }
      ],
      "payable": false,
      "stateMutability": "view",
      "type": "function"
    },
    {
      "constant": false,
      "inputs": [
        {
          "internalType": "uint256",
          "name": "amt",
          "type": "uint256"
        }
      ],
      "name": "withdraw",
      "outputs": [],
      "payable": false,
      "stateMutability": "nonpayable",
      "type": "function"
    },
    {
      "constant": false,
      "inputs": [
        {
          "internalType": "uint256",
          "name": "amt",
          "type": "uint256"
        }
      ],
      "name": "deposite",
      "outputs": [],
      "payable": false,
      "stateMutability": "nonpayable",
      "type": "function"
    }
  ],
  "bytecode": "0x608060405234801561001057600080fd5b50600160008190555061010d806100286000396000f3fe6080604052348015600f57600080fd5b5060043610603c5760003560e01c806312065fe01460415780632e1a7d4d14605d5780633104562b146088575b600080fd5b604760b3565b6040518082815260200191505060405180910390f35b608660048036036020811015607157600080fd5b810190808035906020019092919050505060bc565b005b60b160048036036020811015609c57600080fd5b810190808035906020019092919050505060ca565b005b60008054905090565b806000540360008190555050565b80600054016000819055505056fea265627a7a723158207c36c659d30fb1d76e95ab612675dfb111f2e340ae88213258672da79ae32fb264736f6c63430005100032",
  "source": "pragma solidity >=0.4.21 <0.7.0;\r\n\r\ncontract Bank {\r\n    uint bal;\r\n    \r\n    constructor() public {\r\n        bal = 1;\r\n    }\r\n\r\n    function getBalance() view public returns(uint) {\r\n        return (bal);\r\n    }\r\n\r\n    function withdraw(uint amt) public {\r\n        bal = bal - amt;\r\n    }\r\n\r\n    function deposite(uint amt) public {\r\n        bal = bal + amt;\r\n    }\r\n\r\n    \r\n}",
  "sourcePath": "D:\\Projects\\Blockchain\\Truffle\\Sample truffle Unbox\\contracts\\Bank.sol",
  "compiler": {
    "name": "solc",
    "version": "0.5.16+commit.9c3226ce.Emscripten.clang"
  },
  "schemaVersion": "3.4.4",
  "updatedAt": "2022-01-02T04:59:52.936Z",
  "devdoc": {
    "methods": {}
  },
  "userdoc": {
    "methods": {}
  }
}